{
  "_format": "hh-sol-artifact-1",
  "contractName": "GreenHydrogenCredit",
  "sourceName": "contracts/mycontract.sol",
  "abi": [
    {
      "inputs": [],
      "stateMutability": "nonpayable",
      "type": "constructor"
    },
    {
      "anonymous": false,
      "inputs": [
        {
          "indexed": true,
          "internalType": "address",
          "name": "consumer",
          "type": "address"
        },
        {
          "indexed": true,
          "internalType": "address",
          "name": "verifier",
          "type": "address"
        }
      ],
      "name": "ConsumerVerified",
      "type": "event"
    },
    {
      "anonymous": false,
      "inputs": [
        {
          "indexed": true,
          "internalType": "uint256",
          "name": "id",
          "type": "uint256"
        },
        {
          "indexed": true,
          "internalType": "address",
          "name": "producer",
          "type": "address"
        },
        {
          "indexed": true,
          "internalType": "address",
          "name": "consumer",
          "type": "address"
        },
        {
          "indexed": false,
          "internalType": "uint256",
          "name": "amount",
          "type": "uint256"
        }
      ],
      "name": "CreditConsumed",
      "type": "event"
    },
    {
      "anonymous": false,
      "inputs": [
        {
          "indexed": true,
          "internalType": "uint256",
          "name": "id",
          "type": "uint256"
        },
        {
          "indexed": true,
          "internalType": "address",
          "name": "producer",
          "type": "address"
        },
        {
          "indexed": false,
          "internalType": "uint256",
          "name": "amount",
          "type": "uint256"
        },
        {
          "indexed": false,
          "internalType": "string",
          "name": "metadata",
          "type": "string"
        }
      ],
      "name": "CreditCreated",
      "type": "event"
    },
    {
      "anonymous": false,
      "inputs": [
        {
          "indexed": true,
          "internalType": "uint256",
          "name": "id",
          "type": "uint256"
        },
        {
          "indexed": true,
          "internalType": "address",
          "name": "verifier",
          "type": "address"
        }
      ],
      "name": "CreditRejected",
      "type": "event"
    },
    {
      "anonymous": false,
      "inputs": [
        {
          "indexed": true,
          "internalType": "uint256",
          "name": "id",
          "type": "uint256"
        },
        {
          "indexed": true,
          "internalType": "address",
          "name": "verifier",
          "type": "address"
        }
      ],
      "name": "CreditVerified",
      "type": "event"
    },
    {
      "anonymous": false,
      "inputs": [
        {
          "indexed": false,
          "internalType": "address",
          "name": "account",
          "type": "address"
        }
      ],
      "name": "Paused",
      "type": "event"
    },
    {
      "anonymous": false,
      "inputs": [
        {
          "indexed": true,
          "internalType": "bytes32",
          "name": "role",
          "type": "bytes32"
        },
        {
          "indexed": true,
          "internalType": "bytes32",
          "name": "previousAdminRole",
          "type": "bytes32"
        },
        {
          "indexed": true,
          "internalType": "bytes32",
          "name": "newAdminRole",
          "type": "bytes32"
        }
      ],
      "name": "RoleAdminChanged",
      "type": "event"
    },
    {
      "anonymous": false,
      "inputs": [
        {
          "indexed": true,
          "internalType": "bytes32",
          "name": "role",
          "type": "bytes32"
        },
        {
          "indexed": true,
          "internalType": "address",
          "name": "account",
          "type": "address"
        },
        {
          "indexed": true,
          "internalType": "address",
          "name": "sender",
          "type": "address"
        }
      ],
      "name": "RoleGranted",
      "type": "event"
    },
    {
      "anonymous": false,
      "inputs": [
        {
          "indexed": true,
          "internalType": "bytes32",
          "name": "role",
          "type": "bytes32"
        },
        {
          "indexed": true,
          "internalType": "address",
          "name": "account",
          "type": "address"
        },
        {
          "indexed": true,
          "internalType": "address",
          "name": "sender",
          "type": "address"
        }
      ],
      "name": "RoleRevoked",
      "type": "event"
    },
    {
      "anonymous": false,
      "inputs": [
        {
          "indexed": false,
          "internalType": "address",
          "name": "account",
          "type": "address"
        }
      ],
      "name": "Unpaused",
      "type": "event"
    },
    {
      "inputs": [],
      "name": "ADMIN_ROLE",
      "outputs": [
        {
          "internalType": "bytes32",
          "name": "",
          "type": "bytes32"
        }
      ],
      "stateMutability": "view",
      "type": "function"
    },
    {
      "inputs": [],
      "name": "CONSUMER_ROLE",
      "outputs": [
        {
          "internalType": "bytes32",
          "name": "",
          "type": "bytes32"
        }
      ],
      "stateMutability": "view",
      "type": "function"
    },
    {
      "inputs": [],
      "name": "DEFAULT_ADMIN_ROLE",
      "outputs": [
        {
          "internalType": "bytes32",
          "name": "",
          "type": "bytes32"
        }
      ],
      "stateMutability": "view",
      "type": "function"
    },
    {
      "inputs": [],
      "name": "MAX_METADATA_LENGTH",
      "outputs": [
        {
          "internalType": "uint256",
          "name": "",
          "type": "uint256"
        }
      ],
      "stateMutability": "view",
      "type": "function"
    },
    {
      "inputs": [],
      "name": "PRODUCER_ROLE",
      "outputs": [
        {
          "internalType": "bytes32",
          "name": "",
          "type": "bytes32"
        }
      ],
      "stateMutability": "view",
      "type": "function"
    },
    {
      "inputs": [],
      "name": "VERIFIER_ROLE",
      "outputs": [
        {
          "internalType": "bytes32",
          "name": "",
          "type": "bytes32"
        }
      ],
      "stateMutability": "view",
      "type": "function"
    },
    {
      "inputs": [
        {
          "internalType": "address",
          "name": "account",
          "type": "address"
        }
      ],
      "name": "addConsumer",
      "outputs": [],
      "stateMutability": "nonpayable",
      "type": "function"
    },
    {
      "inputs": [
        {
          "internalType": "address",
          "name": "account",
          "type": "address"
        }
      ],
      "name": "addProducer",
      "outputs": [],
      "stateMutability": "nonpayable",
      "type": "function"
    },
    {
      "inputs": [
        {
          "internalType": "address",
          "name": "account",
          "type": "address"
        }
      ],
      "name": "addVerifier",
      "outputs": [],
      "stateMutability": "nonpayable",
      "type": "function"
    },
    {
      "inputs": [
        {
          "internalType": "uint256",
          "name": "creditId",
          "type": "uint256"
        },
        {
          "internalType": "uint256",
          "name": "amount",
          "type": "uint256"
        },
        {
          "internalType": "address",
          "name": "consumer",
          "type": "address"
        }
      ],
      "name": "consumeCredit",
      "outputs": [],
      "stateMutability": "nonpayable",
      "type": "function"
    },
    {
      "inputs": [
        {
          "internalType": "address",
          "name": "producer",
          "type": "address"
        },
        {
          "internalType": "uint256",
          "name": "amount",
          "type": "uint256"
        },
        {
          "internalType": "string",
          "name": "metadata",
          "type": "string"
        }
      ],
      "name": "createCredit",
      "outputs": [
        {
          "internalType": "uint256",
          "name": "",
          "type": "uint256"
        }
      ],
      "stateMutability": "nonpayable",
      "type": "function"
    },
    {
      "inputs": [
        {
          "internalType": "address",
          "name": "user",
          "type": "address"
        }
      ],
      "name": "getBalance",
      "outputs": [
        {
          "internalType": "uint256",
          "name": "",
          "type": "uint256"
        }
      ],
      "stateMutability": "view",
      "type": "function"
    },
    {
      "inputs": [
        {
          "internalType": "uint256",
          "name": "creditId",
          "type": "uint256"
        }
      ],
      "name": "getCredit",
      "outputs": [
        {
          "internalType": "uint256",
          "name": "id",
          "type": "uint256"
        },
        {
          "internalType": "address",
          "name": "producer",
          "type": "address"
        },
        {
          "internalType": "uint256",
          "name": "amount",
          "type": "uint256"
        },
        {
          "internalType": "uint256",
          "name": "consumed",
          "type": "uint256"
        },
        {
          "internalType": "enum GreenHydrogenCredit.CreditStatus",
          "name": "status",
          "type": "uint8"
        },
        {
          "internalType": "string",
          "name": "metadata",
          "type": "string"
        }
      ],
      "stateMutability": "view",
      "type": "function"
    },
    {
      "inputs": [
        {
          "internalType": "address",
          "name": "consumer",
          "type": "address"
        }
      ],
      "name": "getCreditsByConsumer",
      "outputs": [
        {
          "components": [
            {
              "internalType": "uint256",
              "name": "id",
              "type": "uint256"
            },
            {
              "internalType": "address",
              "name": "producer",
              "type": "address"
            },
            {
              "internalType": "uint256",
              "name": "amount",
              "type": "uint256"
            },
            {
              "internalType": "uint256",
              "name": "consumed",
              "type": "uint256"
            },
            {
              "internalType": "enum GreenHydrogenCredit.CreditStatus",
              "name": "status",
              "type": "uint8"
            },
            {
              "internalType": "string",
              "name": "metadata",
              "type": "string"
            }
          ],
          "internalType": "struct GreenHydrogenCredit.Credit[]",
          "name": "",
          "type": "tuple[]"
        }
      ],
      "stateMutability": "view",
      "type": "function"
    },
    {
      "inputs": [
        {
          "internalType": "address",
          "name": "producer",
          "type": "address"
        }
      ],
      "name": "getCreditsByProducer",
      "outputs": [
        {
          "components": [
            {
              "internalType": "uint256",
              "name": "id",
              "type": "uint256"
            },
            {
              "internalType": "address",
              "name": "producer",
              "type": "address"
            },
            {
              "internalType": "uint256",
              "name": "amount",
              "type": "uint256"
            },
            {
              "internalType": "uint256",
              "name": "consumed",
              "type": "uint256"
            },
            {
              "internalType": "enum GreenHydrogenCredit.CreditStatus",
              "name": "status",
              "type": "uint8"
            },
            {
              "internalType": "string",
              "name": "metadata",
              "type": "string"
            }
          ],
          "internalType": "struct GreenHydrogenCredit.Credit[]",
          "name": "",
          "type": "tuple[]"
        }
      ],
      "stateMutability": "view",
      "type": "function"
    },
    {
      "inputs": [
        {
          "internalType": "bytes32",
          "name": "role",
          "type": "bytes32"
        }
      ],
      "name": "getRoleAdmin",
      "outputs": [
        {
          "internalType": "bytes32",
          "name": "",
          "type": "bytes32"
        }
      ],
      "stateMutability": "view",
      "type": "function"
    },
    {
      "inputs": [
        {
          "internalType": "bytes32",
          "name": "role",
          "type": "bytes32"
        },
        {
          "internalType": "address",
          "name": "account",
          "type": "address"
        }
      ],
      "name": "grantRole",
      "outputs": [],
      "stateMutability": "nonpayable",
      "type": "function"
    },
    {
      "inputs": [
        {
          "internalType": "bytes32",
          "name": "role",
          "type": "bytes32"
        },
        {
          "internalType": "address",
          "name": "account",
          "type": "address"
        }
      ],
      "name": "hasRole",
      "outputs": [
        {
          "internalType": "bool",
          "name": "",
          "type": "bool"
        }
      ],
      "stateMutability": "view",
      "type": "function"
    },
    {
      "inputs": [
        {
          "internalType": "address",
          "name": "account",
          "type": "address"
        }
      ],
      "name": "isConsumer",
      "outputs": [
        {
          "internalType": "bool",
          "name": "",
          "type": "bool"
        }
      ],
      "stateMutability": "view",
      "type": "function"
    },
    {
      "inputs": [
        {
          "internalType": "address",
          "name": "consumer",
          "type": "address"
        }
      ],
      "name": "isConsumerVerified",
      "outputs": [
        {
          "internalType": "bool",
          "name": "",
          "type": "bool"
        }
      ],
      "stateMutability": "view",
      "type": "function"
    },
    {
      "inputs": [
        {
          "internalType": "address",
          "name": "account",
          "type": "address"
        }
      ],
      "name": "isProducer",
      "outputs": [
        {
          "internalType": "bool",
          "name": "",
          "type": "bool"
        }
      ],
      "stateMutability": "view",
      "type": "function"
    },
    {
      "inputs": [
        {
          "internalType": "address",
          "name": "account",
          "type": "address"
        }
      ],
      "name": "isVerifier",
      "outputs": [
        {
          "internalType": "bool",
          "name": "",
          "type": "bool"
        }
      ],
      "stateMutability": "view",
      "type": "function"
    },
    {
      "inputs": [],
      "name": "nextCreditId",
      "outputs": [
        {
          "internalType": "uint256",
          "name": "",
          "type": "uint256"
        }
      ],
      "stateMutability": "view",
      "type": "function"
    },
    {
      "inputs": [],
      "name": "pause",
      "outputs": [],
      "stateMutability": "nonpayable",
      "type": "function"
    },
    {
      "inputs": [],
      "name": "paused",
      "outputs": [
        {
          "internalType": "bool",
          "name": "",
          "type": "bool"
        }
      ],
      "stateMutability": "view",
      "type": "function"
    },
    {
      "inputs": [
        {
          "internalType": "bytes32",
          "name": "role",
          "type": "bytes32"
        },
        {
          "internalType": "address",
          "name": "account",
          "type": "address"
        }
      ],
      "name": "renounceRole",
      "outputs": [],
      "stateMutability": "nonpayable",
      "type": "function"
    },
    {
      "inputs": [
        {
          "internalType": "bytes32",
          "name": "role",
          "type": "bytes32"
        },
        {
          "internalType": "address",
          "name": "account",
          "type": "address"
        }
      ],
      "name": "revokeRole",
      "outputs": [],
      "stateMutability": "nonpayable",
      "type": "function"
    },
    {
      "inputs": [
        {
          "internalType": "bytes4",
          "name": "interfaceId",
          "type": "bytes4"
        }
      ],
      "name": "supportsInterface",
      "outputs": [
        {
          "internalType": "bool",
          "name": "",
          "type": "bool"
        }
      ],
      "stateMutability": "view",
      "type": "function"
    },
    {
      "inputs": [],
      "name": "unpause",
      "outputs": [],
      "stateMutability": "nonpayable",
      "type": "function"
    },
    {
      "inputs": [
        {
          "internalType": "address",
          "name": "consumer",
          "type": "address"
        }
      ],
      "name": "verifyConsumer",
      "outputs": [],
      "stateMutability": "nonpayable",
      "type": "function"
    },
    {
      "inputs": [
        {
          "internalType": "uint256",
          "name": "creditId",
          "type": "uint256"
        },
        {
          "internalType": "bool",
          "name": "approve",
          "type": "bool"
        }
      ],
      "name": "verifyCredit",
      "outputs": [],
      "stateMutability": "nonpayable",
      "type": "function"
    }
  ],
  "bytecode": "0x60806040526000600355348015601457600080fd5b50600180556002805460ff19169055611ef8806100326000396000f3fe608060405234801561001057600080fd5b50600436106101e55760003560e01c8063814dc5531161010f578063d745812b116100a2578063e8868e9f11610071578063e8868e9f14610449578063f552102214610452578063f8b2cb4f14610465578063fc00b7981461048e57600080fd5b8063d745812b146103e9578063da304e4d146103fc578063ddf8016614610421578063e7705db61461043457600080fd5b806391d14854116100de57806391d14854146103a6578063a217fddf146103b9578063cb3e1fe7146103c1578063d547741f146103d657600080fd5b8063814dc55314610365578063834ff739146103785780638456cb591461038b5780639000b3d61461039357600080fd5b80633f4ba83a116101875780636a8918b0116101565780636a8918b0146102ec57806375b238fc146102ff57806376072a91146103265780637d8d74c61461033957600080fd5b80633f4ba83a146102b15780634bc02da6146102b9578063544b4aa0146102ce5780635c975abb146102e157600080fd5b8063248a9ca3116101c3578063248a9ca3146102475780632f2ff15d14610278578063331052181461028b57806336568abe1461029e57600080fd5b806301ffc9a7146101ea5780630bd7ce1314610212578063112940f914610232575b600080fd5b6101fd6101f836600461185d565b610497565b60405190151581526020015b60405180910390f35b6102256102203660046118a3565b6104ce565b6040516102099190611946565b6102456102403660046118a3565b6106ab565b005b61026a6102553660046119fb565b60009081526020819052604090206001015490565b604051908152602001610209565b610245610286366004611a14565b6106c6565b6101fd6102993660046118a3565b6106f0565b6102456102ac366004611a14565b61070a565b61024561078d565b61026a600080516020611e8383398151915281565b61026a6102dc366004611a40565b6107bf565b60025460ff166101fd565b6102456102fa366004611aca565b610a30565b61026a7fa49807205ce4d355092ef5a8a18f56e8913cf4a201fbe287825b095693c2177581565b6102256103343660046118a3565b610b9c565b6101fd6103473660046118a3565b6001600160a01b031660009081526006602052604090205460ff1690565b6102456103733660046118a3565b610dbd565b6101fd6103863660046118a3565b610e53565b610245610e6d565b6102456103a13660046118a3565b610e9f565b6101fd6103b4366004611a14565b610eb7565b61026a600081565b61026a600080516020611e6383398151915281565b6102456103e4366004611a14565b610ee0565b6102456103f7366004611aff565b610f05565b61040f61040a3660046119fb565b611251565b60405161020996959493929190611b34565b61024561042f3660046118a3565b611361565b61026a600080516020611ea383398151915281565b61026a6103e881565b6101fd6104603660046118a3565b611379565b61026a6104733660046118a3565b6001600160a01b031660009081526005602052604090205490565b61026a60035481565b60006001600160e01b03198216637965db0b60e01b14806104c857506301ffc9a760e01b6001600160e01b03198316145b92915050565b6001600160a01b038116600090815260076020526040812080546060929067ffffffffffffffff81111561050457610504611b83565b60405190808252806020026020018201604052801561053d57816020015b61052a61180d565b8152602001906001900390816105225790505b50905060005b82548110156106a3576004600084838154811061056257610562611b99565b600091825260208083209091015483528281019390935260409182019020815160c0810183528154815260018201546001600160a01b031693810193909352600280820154928401929092526003810154606084015260048101549091608084019160ff16908111156105d7576105d76118be565b60028111156105e8576105e86118be565b81526020016005820180546105fc90611baf565b80601f016020809104026020016040519081016040528092919081815260200182805461062890611baf565b80156106755780601f1061064a57610100808354040283529160200191610675565b820191906000526020600020905b81548152906001019060200180831161065857829003601f168201915b50505050508152505082828151811061069057610690611b99565b6020908102919091010152600101610543565b509392505050565b6106c3600080516020611e8383398151915282611393565b50565b6000828152602081905260409020600101546106e181611417565b6106eb8383611393565b505050565b60006104c8600080516020611ea383398151915283610eb7565b6001600160a01b038116331461077f5760405162461bcd60e51b815260206004820152602f60248201527f416363657373436f6e74726f6c3a2063616e206f6e6c792072656e6f756e636560448201526e103937b632b9903337b91039b2b63360891b60648201526084015b60405180910390fd5b6107898282611421565b5050565b7fa49807205ce4d355092ef5a8a18f56e8913cf4a201fbe287825b095693c217756107b781611417565b6106c3611486565b6000600080516020611e638339815191526107d981611417565b6107e16114d8565b600085116108265760405162461bcd60e51b81526020600482015260126024820152710416d6f756e74206d757374206265203e20360741b6044820152606401610776565b6001600160a01b03861661086f5760405162461bcd60e51b815260206004820152601060248201526f24b73b30b634b210383937b23ab1b2b960811b6044820152606401610776565b6103e88311156108b55760405162461bcd60e51b81526020600482015260116024820152704d6574616461746120746f6f206c6f6e6760781b6044820152606401610776565b6003805490819060006108c783611bff565b91905055506040518060c00160405280828152602001886001600160a01b03168152602001878152602001600081526020016000600281111561090c5761090c6118be565b815260200186868080601f0160208091040260200160405190810160405280939291908181526020018383808284376000920182905250939094525050838152600460208181526040928390208551815590850151600180830180546001600160a01b0319166001600160a01b0390931692909217909155928501516002808301919091556060860151600383015560808601519282018054929550929360ff19909216919084908111156109c3576109c36118be565b021790555060a082015160058201906109dc9082611c66565b50905050866001600160a01b0316817f65058fa7ac485a43e96af7760c5b925fd931d50b9cdb0a4ae208807b9225444b888888604051610a1e93929190611d25565b60405180910390a39695505050505050565b600080516020611ea3833981519152610a4881611417565b610a506114d8565b6003548310610a715760405162461bcd60e51b815260040161077690611d5b565b600083815260046020526040812090600482015460ff166002811115610a9957610a996118be565b14610ada5760405162461bcd60e51b8152602060048201526011602482015270105b1c9958591e48199a5b985b1a5e9959607a1b6044820152606401610776565b8215610b595760048101805460ff191660019081179091556002820154908201546001600160a01b031660009081526005602052604081208054909190610b22908490611d86565b9091555050604051339085907ffb0eafba66d536e6069c4034f4a025380fb2178d955970896c46cbcf89ad3c3490600090a3610b96565b60048101805460ff19166002179055604051339085907f6c5598ee146b02e0cf0a1a2881a7f225d2aacd425b4f48ea3c1e9e2ab594775a90600090a35b50505050565b60606000805b600354811015610be6576000818152600460205260409020600101546001600160a01b03808616911603610bde5781610bda81611bff565b9250505b600101610ba2565b5060008167ffffffffffffffff811115610c0257610c02611b83565b604051908082528060200260200182016040528015610c3b57816020015b610c2861180d565b815260200190600190039081610c205790505b5090506000805b600354811015610db3576000818152600460205260409020600101546001600160a01b03808816911603610dab57600081815260046020818152604092839020835160c0810185528154815260018201546001600160a01b0316928101929092526002808201549483019490945260038101546060830152918201549092608084019160ff1690811115610cd857610cd86118be565b6002811115610ce957610ce96118be565b8152602001600582018054610cfd90611baf565b80601f0160208091040260200160405190810160405280929190818152602001828054610d2990611baf565b8015610d765780601f10610d4b57610100808354040283529160200191610d76565b820191906000526020600020905b815481529060010190602001808311610d5957829003601f168201915b505050505081525050838381518110610d9157610d91611b99565b60200260200101819052508180610da790611bff565b9250505b600101610c42565b5090949350505050565b6001600160a01b038116610e055760405162461bcd60e51b815260206004820152600f60248201526e496e76616c6964206164647265737360881b6044820152606401610776565b6001600160a01b038116600081815260066020526040808220805460ff19166001179055513392917f122a1b1d5a7f9cf15067ad44b30fb781ff99c56bc580e9a67114da41841062bf91a350565b60006104c8600080516020611e8383398151915283610eb7565b7fa49807205ce4d355092ef5a8a18f56e8913cf4a201fbe287825b095693c21775610e9781611417565b6106c3611520565b6106c3600080516020611ea383398151915282611393565b6000918252602082815260408084206001600160a01b0393909316845291905290205460ff1690565b600082815260208190526040902060010154610efb81611417565b6106eb8383611421565b600080516020611e83833981519152610f1d81611417565b610f2561155d565b610f2d6114d8565b6003548410610f4e5760405162461bcd60e51b815260040161077690611d5b565b60008311610f8b5760405162461bcd60e51b815260206004820152600a6024820152690416d6f756e74203e20360b41b6044820152606401610776565b60008481526004602052604090206001600482015460ff166002811115610fb457610fb46118be565b14610ff05760405162461bcd60e51b815260206004820152600c60248201526b139bdd081d995c9a599a595960a21b6044820152606401610776565b80600201548482600301546110059190611d86565b11156110445760405162461bcd60e51b815260206004820152600e60248201526d115e18d959591cc818dc99591a5d60921b6044820152606401610776565b60018101546001600160a01b03166000908152600560205260409020548411156110b05760405162461bcd60e51b815260206004820152601d60248201527f496e73756666696369656e742070726f64756365722062616c616e63650000006044820152606401610776565b6001600160a01b0383166110f95760405162461bcd60e51b815260206004820152601060248201526f24b73b30b634b21031b7b739bab6b2b960811b6044820152606401610776565b6001600160a01b03831660009081526006602052604090205460ff166111595760405162461bcd60e51b815260206004820152601560248201527410dbdb9cdd5b595c881b9bdd081d995c9a599a5959605a1b6044820152606401610776565b60018101546001600160a01b031660009081526005602052604081208054869290611185908490611d99565b90915550506001600160a01b038316600090815260056020526040812080548692906111b2908490611d86565b92505081905550838160030160008282546111cd9190611d86565b90915550506001600160a01b038084166000818152600760209081526040808320805460018181018355918552929093209091018990559084015490519192169087907fb16d69aac91f55d318a46536fd749eae69e285807dd9109864550fa8e32ff3199061123f9089815260200190565b60405180910390a450610b9660018055565b60008060008060006060600354871061127c5760405162461bcd60e51b815260040161077690611d5b565b6000878152600460208190526040909120805460018201546002830154600384015494840154600585018054959694956001600160a01b0390941694929360ff9092169181906112cb90611baf565b80601f01602080910402602001604051908101604052809291908181526020018280546112f790611baf565b80156113445780601f1061131957610100808354040283529160200191611344565b820191906000526020600020905b81548152906001019060200180831161132757829003601f168201915b505050505090509650965096509650965096505091939550919395565b6106c3600080516020611e6383398151915282611393565b60006104c8600080516020611e6383398151915283610eb7565b61139d8282610eb7565b610789576000828152602081815260408083206001600160a01b03851684529091529020805460ff191660011790556113d33390565b6001600160a01b0316816001600160a01b0316837f2f8788117e7eff1d82e926ec794901d17c78024a50270940304540a733656f0d60405160405180910390a45050565b6106c381336115b6565b61142b8282610eb7565b15610789576000828152602081815260408083206001600160a01b0385168085529252808320805460ff1916905551339285917ff6391f5c32d9c69d2a47ea670b442974b53935d1edc7fd64eb21e047a839171b9190a45050565b61148e61160f565b6002805460ff191690557f5db9ee0a495bf2e6ff9c91a7834c1ba4fdd244a5e8aa4e537bd38aeae4b073aa335b6040516001600160a01b03909116815260200160405180910390a1565b60025460ff161561151e5760405162461bcd60e51b815260206004820152601060248201526f14185d5cd8589b194e881c185d5cd95960821b6044820152606401610776565b565b6115286114d8565b6002805460ff191660011790557f62e78cea01bee320cd4e420270b5ea74000d11b0c9f74754ebdbfc544b05a2586114bb3390565b6002600154036115af5760405162461bcd60e51b815260206004820152601f60248201527f5265656e7472616e637947756172643a207265656e7472616e742063616c6c006044820152606401610776565b6002600155565b6115c08282610eb7565b610789576115cd81611658565b6115d883602061166a565b6040516020016115e9929190611dac565b60408051601f198184030181529082905262461bcd60e51b825261077691600401611e21565b60025460ff1661151e5760405162461bcd60e51b815260206004820152601460248201527314185d5cd8589b194e881b9bdd081c185d5cd95960621b6044820152606401610776565b60606104c86001600160a01b03831660145b60606000611679836002611e34565b611684906002611d86565b67ffffffffffffffff81111561169c5761169c611b83565b6040519080825280601f01601f1916602001820160405280156116c6576020820181803683370190505b509050600360fc1b816000815181106116e1576116e1611b99565b60200101906001600160f81b031916908160001a905350600f60fb1b8160018151811061171057611710611b99565b60200101906001600160f81b031916908160001a9053506000611734846002611e34565b61173f906001611d86565b90505b60018111156117b7576f181899199a1a9b1b9c1cb0b131b232b360811b85600f166010811061177357611773611b99565b1a60f81b82828151811061178957611789611b99565b60200101906001600160f81b031916908160001a90535060049490941c936117b081611e4b565b9050611742565b5083156118065760405162461bcd60e51b815260206004820181905260248201527f537472696e67733a20686578206c656e67746820696e73756666696369656e746044820152606401610776565b9392505050565b6040518060c001604052806000815260200160006001600160a01b03168152602001600081526020016000815260200160006002811115611850576118506118be565b8152602001606081525090565b60006020828403121561186f57600080fd5b81356001600160e01b03198116811461180657600080fd5b80356001600160a01b038116811461189e57600080fd5b919050565b6000602082840312156118b557600080fd5b61180682611887565b634e487b7160e01b600052602160045260246000fd5b600381106118f257634e487b7160e01b600052602160045260246000fd5b9052565b60005b838110156119115781810151838201526020016118f9565b50506000910152565b600081518084526119328160208601602086016118f6565b601f01601f19169290920160200192915050565b6000602082016020835280845180835260408501915060408160051b86010192506020860160005b828110156119ef57603f1987860301845281518051865260018060a01b036020820151166020870152604081015160408701526060810151606087015260808101516119bd60808801826118d4565b5060a0810151905060c060a08701526119d960c087018261191a565b955050602093840193919091019060010161196e565b50929695505050505050565b600060208284031215611a0d57600080fd5b5035919050565b60008060408385031215611a2757600080fd5b82359150611a3760208401611887565b90509250929050565b60008060008060608587031215611a5657600080fd5b611a5f85611887565b935060208501359250604085013567ffffffffffffffff811115611a8257600080fd5b8501601f81018713611a9357600080fd5b803567ffffffffffffffff811115611aaa57600080fd5b876020828401011115611abc57600080fd5b949793965060200194505050565b60008060408385031215611add57600080fd5b8235915060208301358015158114611af457600080fd5b809150509250929050565b600080600060608486031215611b1457600080fd5b8335925060208401359150611b2b60408501611887565b90509250925092565b8681526001600160a01b03861660208201526040810185905260608101849052611b6160808201846118d4565b60c060a08201526000611b7760c083018461191a565b98975050505050505050565b634e487b7160e01b600052604160045260246000fd5b634e487b7160e01b600052603260045260246000fd5b600181811c90821680611bc357607f821691505b602082108103611be357634e487b7160e01b600052602260045260246000fd5b50919050565b634e487b7160e01b600052601160045260246000fd5b600060018201611c1157611c11611be9565b5060010190565b601f8211156106eb57806000526020600020601f840160051c81016020851015611c3f5750805b601f840160051c820191505b81811015611c5f5760008155600101611c4b565b5050505050565b815167ffffffffffffffff811115611c8057611c80611b83565b611c9481611c8e8454611baf565b84611c18565b6020601f821160018114611cc85760008315611cb05750848201515b600019600385901b1c1916600184901b178455611c5f565b600084815260208120601f198516915b82811015611cf85787850151825560209485019460019092019101611cd8565b5084821015611d165786840151600019600387901b60f8161c191681555b50505050600190811b01905550565b83815260406020820152816040820152818360608301376000818301606090810191909152601f909201601f1916010192915050565b602080825260119082015270125b9d985b1a590818dc99591a5d081251607a1b604082015260600190565b808201808211156104c8576104c8611be9565b818103818111156104c8576104c8611be9565b7f416363657373436f6e74726f6c3a206163636f756e7420000000000000000000815260008351611de48160178501602088016118f6565b7001034b99036b4b9b9b4b733903937b6329607d1b6017918401918201528351611e158160288401602088016118f6565b01602801949350505050565b602081526000611806602083018461191a565b80820281158282048414176104c8576104c8611be9565b600081611e5a57611e5a611be9565b50600019019056fe8eb467f061ca67f42a2d2ca4a346fc9fb645efc0ba75056ee9f71c3a0ccc10a89d56108290ea0bc9c5c59c3ad357dca9d1b29ed7f3ae1443bef2fa2159bdf5e80ce23c3e399818cfee81a7ab0880f714e53d7672b08df0fa62f2843416e1ea09a264697066735822122051d5874fbfc953d1e873f16613bdf8444ec058fa7ef6916819306fea08d3dec564736f6c634300081c0033",
  "linkReferences": {},
  "deployedLinkReferences": {}
}